:020000040000FA
:060000000A128A11122809
:10000800FE00030EF5000408F6000A08F700831244
:1000180003137F08F8000A128A110D2B0A128A119D
:100028001528F901FA01FB01FC01FD0183132030B9
:10003800840052300A128A1190230A128A11A030C1
:100048008400F0300A128A1190230A128A1183015F
:100058000A128A114F2B7C1C3228332845287C1021
:100068000A30FF007F0883120313D50001300A12FB
:100078008A113B220A128A110A128A116B230A1268
:100088008A11FC1C482849285B28FC100530FF0011
:100098007F0883120313D50015300A128A113B22F8
:1000A8000A128A110A128A116B230A128A117C1DFC
:1000B8005E285F2871287C110530FF007F088312B5
:1000C8000313D50015300A128A113B220A128A112D
:1000D8000A128A116B230A128A11FC1D74287528CA
:1000E8008728FC110530FF007F0883120313D50011
:1000F80015300A128A113B220A128A110A128A1131
:100108006B230A128A117C1E8A288B289D287C1250
:100118000530FF007F0883120313D50015300A123B
:100128008A113B220A128A110A128A116B230A12B7
:100138008A11FC1EA028A128B328FC120530FF0054
:100148007F0883120313D50015300A128A113B2247
:100158000A128A110A128A116B230A128A117C1F49
:10016800B628B728C9287C130530FF007F088312FA
:100178000313D50015300A128A113B220A128A117C
:100188000A128A116B230A128A11FC1FCC28CD2867
:10019800DF28FC130A30FF007F0883120313D50001
:1001A8000B300A128A113B220A128A110A128A118A
:1001B8006B230A128A11080083120313DC01D51F6E
:1001C800E628E728F428D209D309D409D509D20AA0
:1001D8000319D30A0319D40A0319D50ADC01DC0A66
:1001E800D91FF728F8280729D609D709D809D9091E
:1001F800D60A0319D70A0319D80A0319D90A0130EC
:10020800FF007F08DC060030E0000030DF0000302F
:10021800DE000030DD00550854045304520403196D
:10022800162917296429DB01DB0A27290130DA009E
:100238000310D20DD30DD40DD50DDA0B1C290130C6
:10024800FF007F08DB07D51F2A292B291A2901302F
:10025800DA000310DD0DDE0DDF0DE00DDA0B2D29C0
:1002680055085902031D422954085802031D422902
:1002780053085702031D422952085602031C4529F8
:10028800462955295208D6025308031C530FD70292
:100298005408031C540FD8025508031C550FD902E3
:1002A8005D1401300310D50CD40CD30CD20CFF3ED6
:1002B800031D56290130DB02031D632964292B29FC
:1002C8005C080319682969297429DD09DE09DF0931
:1002D800E009DD0A0319DE0A0319DF0A0319E00A37
:1002E8006008D5005F08D4005E08D3005D08D2001E
:1002F8000800FD1C802981299929203083120313C5
:100308001A06031D882989299329FD107D15FC17D4
:1003180083160313981C912992298C29E7290A121C
:100328008A1183230A128A11E7294330831203139F
:100338001A06031DA029A129A729FD18A429A52962
:10034800E7297D14E72944301A06031DAC29AD2995
:10035800B3297D18B029B129E729FD14E7297D1CA7
:10036800B629B729E729C6297B14E529FB14E5290D
:100378007B15E529FB15E5297B16E529FB16E529FB
:100388007B17E5291A08F300F4017408003A0319E9
:10039800CE29E5297308303A0319B829013A031917
:1003A800BA29033A0319BC29013A0319BE29073AA5
:1003B8000319C029013A0319C229033A0319C429A8
:1003C800E5297D10FC140800831603130C128C1603
:1003D800181318128312031318138316031787119F
:1003E8008316031398111815831203136108D2009A
:1003F8006208D300D401D5010030D900A830D80054
:10040800C030D7000030D6000A128A11E0200A1244
:100418008A11831203135508E6005408E5005308AF
:10042800E4005208E3000030D5000030D40000306A
:10043800D3001030D2006608D9006508D8006408D7
:10044800D7006308D6000A128A11E0200A128A111E
:10045800831203135208FF3E83160313990087176C
:100468000713981683120313181698170800831297
:100478000313D9000E3055020318432A442A892A47
:10048800D8015F2A831203135808590784000A12F7
:100498008A1130230A128A11FF007F08D200203007
:1004A8000A128A118A220A128A110130FF007F0873
:1004B80083120313D8075508FF3ED600FF300318F0
:1004C8000030D7005708803A803C031D6D2A560833
:1004D8005802031C702A712A462A0D30FF007F0833
:1004E80083120313D20020300A128A118A220A12B8
:1004F8008A110A30FF007F0883120313D2002030CC
:100508000A128A118A220A128A1108008312031316
:10051800D4005208FF005408113E840083130008D9
:100528005407D300530884007F0880005408113E04
:1005380084000008013E0F39FF005408113E840072
:100548007F0880005408123E84001030000203180F
:10055800AE2AAF2AB62A0130FF005408123E8400A2
:100568007F088007080083120313D4005408123E42
:100578008400831300080319C22AC32AE12A5408F5
:10058800103E840000085407D20052088400000876
:10059800FF007F08D3005408103E84000008013E85
:1005A8000F39FF005408103E84007F08800054086B
:1005B800123E84000130800253080800F2007008DF
:1005C800FF007208113E8400831300087207F100CF
:1005D800710884007F0880007208113E84000008BA
:1005E800013E0F39FF007208113E84007F08800029
:1005F8007208123E8400103000020318042B052BE9
:100608000C2B0130FF007208123E84007F0880071F
:1006180008000C1E102B112B192B0A128A11A1236A
:100628000A128A11831203130C128C1E1C2B1D2B09
:10063800252B0A128A117D210A128A1183120313AB
:100648008C127808FF0077088A0076088400750EF7
:100658008300FE0E7E0E090003308A000408840A17
:100668008207003443345234653463346534693462
:100678007634653464340034443452346534633435
:100688006534693476346534643400344E34553412
:100698004C344C3400340A128A1198230A128A11F5
:1006A800803083120313E1002530E2000A128A1118
:1006B800E8210A128A118316031309140A128A11EF
:1006C8002F200A128A11622B0A128A1112287B2BF8
:1006D80020300A128A11B7220A128A1183120313D0
:1006E800990083160313981C7A2B7B2B752B831286
:1006F80003133208031D812B822B6C2B08008312F5
:1007080003131A08FF007F08F00033300A128A1119
:10071800E2220A128A11080064008001840A040691
:10072800031900340406912B0A128A119E230A1217
:0C0738008A1108000B178B17080008003E
:04400E00F220FF3E5F
:00000001FF
