:020000040000FA
:060000000A128A110C280F
:10000800FE00030EF4000A08F5000A128A115A28A5
:100018000A128A110F28F001F101F201F30183019C
:100028000A128A1146287308031D28287208031D1E
:1000380028287108031D28280B307002031D242866
:10004800031C2728282834280030F3000030F20049
:100058000030F1000030F00083160313091545281D
:100068008316031309110130F0070030031801301B
:10007800F107003003180130F2070030031801308F
:10008800F30708000A128A117A200A128A11F60167
:1000980000300A128A116B200A128A118316031380
:1000A8000914891056280A128A110C280B1D5D287C
:1000B8005E2864280A128A1117200A128A110B1165
:1000C80075088A00740E8300FE0E7E0E0900F70084
:1000D800831603138111811201087706F839770610
:1000E80081007608831203138100080001300A1288
:1000F8008A1186200A128A110A128A118E200A127F
:100108008A110800F6000B11760C031C8B120318D9
:0A0118008B1608000B178B17080068
:04400E00F220FF3E5F
:00000001FF
