:020000040000FA
:060000000A128A11162805
:10000800FE00030E83160313E3000408E4000A0845
:10001800E500831203137F0883160313E6000A1210
:100028008A15C6280A128A11192883160313E701AC
:10003800E8018317903084009C300A128A155120F9
:100048000A128A111030840060300A128A15512071
:100058000A128A1183010A128A113C2E831603138D
:10006800E20062080B3E840083170003031D3D284D
:100078003E28592862080B3E840080016208033E2E
:10008800840001308002840A0030031C01308002A1
:10009800840A0030031C01308002840A0030031CEB
:1000A80001308002033084023B2E6208033E840044
:1000B8000008B700840A0008B800840A0008B900DC
:1000C800840A0008BA003A083904380437040319C6
:1000D8006E286F2886286208033E8400013080025B
:1000E800840A0030031C01308002840A0030031C9B
:1000F80001308002840A0030031C01308002033082
:1001080084023B2E1A30FF007F08F60036084E3E68
:10011800840000080A128A1565200A128A118316BB
:1001280003133607B7003708093E84008317000811
:10013800B800840A0008B900840A0008BA00840AD2
:100148000008BB001A30FF007F08F60036084E3E54
:10015800840000080A128A1565200A128A1183167B
:1001680003133607BC003C08053E840083170008CB
:10017800BD00840A0008BE00840A0008BF00840A83
:100188000008C0001A30FF007F08F60036084E3E0F
:10019800840000080A128A1565200A128A1183163B
:1001A80003133607C100410A840083170008C20000
:1001B800840A0008C300840A0008C400840A0008EE
:1001C800C5004208BD0743080318430FEC28ED2873
:1001D800BE0744080318440FF228F328BF07450850
:1001E8000318450AC0073D08B8073E0803183E0F24
:1001F800FE28FF28B9073F0803183F0F04290529DF
:10020800BA0740080318400ABB073B083A043904F8
:1002180038040319102911291829620884000003D9
:10022800031D172918298A2A1A30FF007F08F600AB
:1002380036084E3E84000008013EF20000300318E4
:100248000130F3000330F0000030F1000A128A1583
:10025800B3210A128A1170080A128A1565200A1237
:100268008A11831603133607B7003708193E84002E
:10027800023083170006031D42294329872A0330C9
:10028800F0000030F10036084E3E84000008013EC0
:10029800F200003003180130F3000A128A15B32166
:1002A8000A128A117008FF008316031336084E3E9F
:1002B80084007F08831780001A30FF007F08F6004B
:1002C80036084E3E840000080A128A1565200A1274
:1002D8008A11831603133607B7003708193E8400BE
:1002E8000330FF007F0883178000620884008001C4
:1002F800463083120313EB001C30EA004030E9005B
:100308000030E8001A30FF007F08F6008316031358
:1003180036084E3E840000080A128A1565200A1223
:100328008A11831603133607B70037080D3E840079
:1003380083170008B800840A0008B900840A000876
:10034800BA00840A0008BB0001300310B80DB90DCB
:10035800BA0DBB0DFF3E031DA9291A30FF007F0807
:10036800F60036084E3E840000080A128A156520F9
:100378000A128A11831603133607BC003C08153E7F
:1003880084008317000883120313B100840A00084D
:10039800B200840A0008B300840A0008B4001A30C6
:1003A800FF007F08F6008316031336084E3E8400CC
:1003B80000080A128A1565200A128A118316031387
:1003C8003607BD003D08153E8400831700088312D8
:1003D8000313AD00840A0008AE00840A0008AF00C9
:1003E800840A0008B0000A128A156B210A128A11C1
:1003F800831203132D0883160313B80783120313FC
:100408002E0803182E0F092A0C2A83160313B9077E
:10041800831203132F0803182F0F132A162A831683
:100428000313BA078312031330080318300A83161C
:100438000313BB073B0883120313BC008316031383
:100448003A0883120313BB00831603133908831277
:100458000313BA0083160313380883120313B90071
:1004680000300A128A15CF220A128A118312031346
:100478003C08CA003B08C9003A08C8003908C70048
:100488000A128A158B230A128A11831203134A0847
:10049800E7004908E6004808E5004708E4000A12B2
:1004A8008A156B250A128A118312031367088316AB
:1004B8000313B50083120313660883160313B400ED
:1004C80083120313650883160313B30083120313FF
:1004D800640883160313B2000A128A115C270A12F1
:1004E8008A11831603136208073E840032088317B3
:1004F8008000840A33088000840A34088000840A53
:10050800350880008A2A6208840080011A30FF00BA
:100518007F08F60036084E3E840000080A128A1545
:1005280065200A128A11831603133607B7003708A5
:10053800193E8400033083170006031DA42AA52A48
:100548003B2E62080B3E84008001800AFF30831234
:100558000313A300FF30A200E130A1000030A00087
:100568001A30FF007F08F6008316031336084E3E44
:10057800840000080A128A1565200A128A11831657
:1005880003133607B70037080D3E840083170008A9
:1005980083120313A400840A0008A500840A000833
:1005A800A600840A0008A7000A128A1567220A1200
:1005B8008A11831203132308B0002208AF00210810
:1005C800AE002008AD00FF30A300FF30A200E130EC
:1005D800A1000030A0001A30FF007F08F600831643
:1005E800031336084E3E8400831700080A128A1542
:1005F80065200A128A11831603133607B8003808D3
:100608000D3E84008317000883120313A400840A94
:100618000008A500840A0008A600840A0008A700AC
:100628000A128A1567220A128A11831203132308F1
:10063800B4002208B3002108B2002008B1000A1251
:100648008A156B210A128A11831203133008831644
:100658000313C900831203132F0883160313C8005A
:10066800831203132E0883160313C7008312031380
:100678002D0883160313C600490883120313B0001C
:1006880083160313480883120313AF00831603135A
:10069800470883120313AE00831603134608831218
:1006A8000313AD00831603136208073E8400831703
:1006B800000883120313B100840A0008B200840AF8
:1006C8000008B300840A0008B4000A128A156B21D6
:1006D8000A128A1183120313300883160313CD00FC
:1006E800831203132F0883160313CC0083120313FA
:1006F8002E0883160313CB00831203132D088316C9
:100708000313CA004D0883120313B00083160313A2
:100718004C0883120313AF00831603134B0883128C
:100728000313AE00831603134A0883120313AD00A4
:10073800831603136208073E840083170008831298
:100748000313B100840A0008B200840A0008B30049
:10075800840A0008B4000A128A156B210A128A1149
:1007680083120313300883160313D1008312031373
:100778002F0883160313D000831203132E08831641
:100788000313CF00831203132D0883160313CE001F
:10079800510883120313B000831603135008831201
:1007A8000313AF00831603134F0883120313AE001D
:1007B800831603134E0883120313AD008316031325
:1007C8006208073E84008317000883120313B100F0
:1007D800840A0008B200840A0008B300840A0008EA
:1007E800B4000A128A156B210A128A1183120313A4
:1007F800300883160313D500831203132F088316BA
:100808000313D400831203132E0883160313D30093
:10081800831203132D0883160313D200550883127D
:100828000313B00083160313540883120313AF0095
:1008380083160313530883120313AE00831603139E
:10084800520883120313AD00831603136208073E90
:1008580084008317000883120313B100840A000878
:10086800B200840A0008B300840A0008B4000A121F
:100878008A156B210A128A11831203133008831612
:100888000313D900831203132F0883160313D80008
:10089800831203132E0883160313D700831203133E
:1008A8002D0883160313D6006208073E84008317B9
:1008B800000883120313AD00840A0008AE00840AFE
:1008C8000008AF00840A0008B0008316031362080A
:1008D800073E8400000883120313B100840A00084D
:1008E800B200840A0008B300840A0008B4000A129F
:1008F8008A156B210A128A11831203133008831692
:100908000313DD00831203132F0883160313DC007F
:10091800831203132E0883160313DB0083120313B9
:100928002D0883160313DA005D0883120313B00041
:10093800831603135C0883120313AF008316031393
:100948005B0883120313AE00831603135A0883123D
:100958000313AD00831603136208073E8400831750
:10096800000883120313B100840A0008B200840A45
:100978000008B300840A0008B4000A128A156B2123
:100988000A128A1183120313300883160313E10035
:10099800831203132F0883160313E0008312031333
:1009A8002E0883160313DF00831203132D08831602
:1009B8000313DE006208073E840083170008B700AF
:1009C800840A0008B800840A0008B900840A0008EC
:1009D800BA00590883120313B0008316031358088A
:1009E80083120313AF0083160313570883120313EC
:1009F800AE0083160313560883120313AD00831643
:100A080003136208073E8400000883120313B10031
:100A1800840A0008B200840A0008B300840A0008A7
:100A2800B4000A128A156B210A128A118312031361
:100A38002D0883160313BB00831203132E08831695
:100A48000313BC00831203132F0883160313BD007E
:100A580083120313300883160313BE00FF3083127A
:100A68000313A300FF30A200E130A1000030A00072
:100A780083160313610883120313B000831603134C
:100A8800600883120313AF00831603135F088312F1
:100A98000313AE00831603135E0883120313AD001D
:100AA8001A30FF007F08F6008316031336084E3EFF
:100AB8008400831700080A128A1565200A128A1111
:100AC800831603133607BF003F080D3E84008317C3
:100AD800000883120313B100840A0008B200840AD4
:100AE8000008B300840A0008B4000A128A156B21B2
:100AF8000A128A11831203133008A7002F08A600D0
:100B08002E08A5002D08A4000A128A1567220A12C9
:100B18008A1183120313200883160313BB07831259
:100B2800031321080318210F9A2D9D2D83160313F3
:100B3800BC078312031322080318220FA42DA72D24
:100B480083160313BD078312031323080318230A0C
:100B580083160313BE073B08B7073C0803183C0F6E
:100B6800B62DB72DB8073D0803183D0FBC2DBD2D78
:100B7800B9073E0803183E0ABA076208073E840010
:100B8800370883178000840A38088000840A3908E7
:100B98008000840A3A0880001A30FF007F08F600B7
:100BA80036084E3E840000080A128A1565200A128B
:100BB8008A11831603133607B700370A84000130F9
:100BC80083178002840A0030031C01308002840AE3
:100BD8000030031C01308002840A0030031C0130FD
:100BE8008002033084021A30FF007F08F6003608BE
:100BF8004E3E840000080A128A1565200A128A11DE
:100C0800831603133607B7003708053E8400013002
:100C180083178002840A0030031C01308002840A92
:100C28000030031C01308002840A0030031C0130AC
:100C38008002033084026208073E84000008B7007F
:100C4800840A0008B800840A0008B900840A000869
:100C5800BA006208033E840037088000840A380816
:100C68008000840A39088000840A3A088000080055
:100C78000A128A1559200A128A110A128A1508219D
:100C88000A128A111A30FF007F08831603179C0086
:100C9800831203175F080A128A157A200A128A112A
:100CA800293E840083170003031D5B2E5C2E462E0D
:100CB8001A30FF007F08831603179C00831203175E
:100CC8005F080A128A157A200A128A111D3E8400CA
:100CD8000A3083178000840A00308000840A0030BC
:100CE8008000840A003080001A30FF007F088316D5
:100CF80003179C00831203175F080A128A157A20CB
:100D08000A128A11113E8400323083178000840A47
:100D180000308000840A00308000840A003080009F
:100D28001A30FF007F08831603179C0083120317ED
:100D38005F080A128A157A200A128A11213E840055
:100D48000A3083178000840A00308000840A00304B
:100D58008000840A003080001A30FF007F08831664
:100D680003179C00831203175F080A128A157A205A
:100D78000A128A11153E8400323083178000840AD3
:100D880000308000840A00308000840A003080002F
:100D98001A30FF007F08831603179C00831203177D
:100DA8005F080A128A157A200A128A11193E8400ED
:100DB800963083178000840A00308000840A00304F
:100DC8008000840A003080001A30FF007F088316F4
:100DD80003179C00831203175F080A128A157A20EA
:100DE8000A128A11103E8400831780011A30FF000E
:100DF8007F08831603179C00831203175F080A12E3
:100E08008A157A200A128A11293E84000230FF00CE
:100E18007F08831780001A30FF007F0883160317A6
:100E28009C00831203175F080A128A157A200A1297
:100E38008A11253E8400F43083178000840A01302B
:100E48008000840A00308000840A0030800003306B
:100E5800831603179C0000309D00831203175F0858
:100E6800013E831603179E000030031801309F00CF
:100E78000A128A150C220A128A11831603171C08F3
:100E8800FF007F0883120317DF0002308316031761
:100E9800A4006830A3000C30A200A20B512FA30BB2
:100EA800512FA40B512F0000462E0A128A11162822
:100EB800031083160313340D350DFF007F08FC0063
:100EC8007C08031D682F692F722F0030B500003091
:100ED800B4000030B3000030B200EE2F32088312A5
:100EE8000313EC0083160313330883120313ED0076
:100EF80083160313340883120313EE0083160313B7
:100F0800350883120313EF001F300310EF0CEE0CAB
:100F1800ED0CEC0CFF3E031D892F6C08FF007F08C9
:100F2800FB0083160313B417FF30B205FF30B30577
:100F3800FF30B4050030B5059630FC02FC1FA52F24
:100F4800A62FC02F7C08803A973E0318AC2FAD2FF0
:100F5800AE2F692F01300310B50CB40CB30CB20CD2
:100F6800FF3E031DAF2F0130FF007F08FC07031D64
:100F7800BE2FBF2FAE2FDC2F20307C02031CC52FC5
:100F8800C62FD72F692F01308312EC000310831668
:100F98000313B20DB30DB40DB50D83120313EC0B8F
:100FA800CA2F0130FC027C08031DDB2FDC2FC72F62
:100FB8007B080319E02FE12FEE2F83160313B209E4
:100FC800B309B409B509B20A0319B30A0319B40A73
:100FD8000319B50A0800831603179C00831203132C
:100FE8008C10831603171C0C83160313031C8C1018
:060FF80003188C14080030
:10109C000B178B17080064008001840A04060319DF
:1010AC0000340406522801300A128A11EF270A1262
:1010BC008A150A128A154E200A128A150800F800A1
:1010CC00F701781C6A286B286F287608FF007F08C8
:1010DC00F7070310F60D0310F80C7808031D77289A
:1010EC007828672877080800831603179E009D014F
:1010FC001E1C8128822886281C08FF007F089D075B
:10110C0003109C0D03109E0C1E08031D8E288F28A7
:10111C007E281D080800831603171108031D972845
:10112C009828A4281030FF007F0883160313B600FC
:10113C0090300A128A1132200A128A150A128A1564
:10114C00AA200A128A150800831603171003031D20
:10115C00B028B128B528831603130910C528120C22
:10116C0083160313031C881303188817831603179D
:10117C001B0C83160313031C091003180914080015
:10118C00831203138C1CCB28CC28D4280A128A1562
:10119C0091200A128A15831203138C1083160313E1
:1011AC00660883120313FF008316031365088A0075
:1011BC0064088400630E8300FE0E7E0E0900831605
:1011CC000317A000A1011A30FF007F089C00210822
:1011DC000A128A157A200A128A1583160317200719
:1011EC009F001F08193E840083178001800A01307C
:1011FC00FF007F08A10703302102031C06290729E1
:10120C00E92808000030831203139218013083166A
:10121C0003179C009D019E0101300A128A1538218A
:10122C000A128A1583160313881383160317900169
:10123C009730840083178001840A8001840A80011E
:10124C00840A8001933084008001840A8001840A1E
:10125C008001840A800110300A128A15E5200A12D6
:10126C008A15080083160317A00020183E2942296E
:10127C00831203131215452983120313121112083A
:10128C00831603171C06FC391C06831203139200E9
:10129C00831603171D089F009F0D9F0D9F0D831232
:1012AC0003131208831603171F0687391F068312B0
:1012BC0003139200FF308316031392008316031757
:1012CC001E088312031391000800003083120313CD
:1012DC00B8000030B7000030B6000030B5002D1C4F
:1012EC007829792990293108B50732080311031898
:1012FC00013E03198229B607330803110318013E76
:10130C0003198929B707340803110318013E03197F
:10131C009029B8070130FA000310B10DB20DB30DCE
:10132C00B40DFA0B922901300310B00CAF0CAE0CBB
:10133C00AD0CFF3E031D9A2930082F042E042D04FA
:10134C00031DA929AA2975293808B0003708AF0050
:10135C003608AE003508AD000800F501F31FB729BB
:10136C00B829BF29F209F309F20A0319F30AF501A6
:10137C00F50AF11FC229C329C829F009F109F00A9D
:10138C000319F10A700871040319CD29CE29FD291E
:10139C00F401F40ADC2901300310F00DF10DFF3ECD
:1013AC00031DD2290130FF007F08F407F11FDF294C
:1013BC00E029D12971087302031DE6297008720215
:1013CC00031CE929EA29F0297008F2027108031CB0
:1013DC00F303F30201300310F10CF00CFF3E031D7C
:1013EC00F1290130F402031DFC29FD29E0297508BF
:1013FC000319012A022A072AF209F309F20A03192E
:10140C00F30A7308F1007208F00008008316031742
:10141C00A1019F1F122A132A1A2A9E099F099E0AAC
:10142C0003199F0AA101A10A9D1F1D2A1E2A232A06
:10143C009C099D099C0A03199D0A1C081D0403198B
:10144C00282A292A582AA001A00A372A0130031079
:10145C009C0D9D0DFF3E031D2D2A0130FF007F08C2
:10146C00A0079D1F3A2A3B2A2C2A1D081F02031D88
:10147C00412A1C081E02031C442A452A4B2A1C081C
:10148C009E021D08031C9F039F02013003109D0C3C
:10149C009C0CFF3E031D4C2A0130A002031D572A51
:1014AC00582A3B2A210803195C2A5D2A622A9E09C4
:1014BC009F099E0A03199F0A1F089D001E089C0085
:1014CC000800003083120313AB000030AA00003078
:1014DC00A9000030A80023082204210420040319C9
:1014EC00782A792AC62AAC01AC0A892A0130F9007B
:1014FC000310A00DA10DA20DA30DF90B7E2A013036
:10150C00FF007F08AC07A31F8C2A8D2A7C2A013090
:10151C00F9000310A80DA90DAA0DAB0DF90B8F2A1C
:10152C0023082702031DA42A22082602031DA42A2D
:10153C0021082502031DA42A20082402031CA72A23
:10154C00A82AB72A2008A4022108031C210FA502EF
:10155C002208031C220FA6022308031C230FA70238
:10156C00281401300310A30CA20CA10CA00CFF3EFC
:10157C00031DB82A0130AC02031DC52AC62A8D2AC8
:10158C002B08A3002A08A2002908A1002808A00003
:10159C00080083120313C10041080319D62AD72A65
:1015AC00EB2ABC1FDA2ADB2AEB2A3909C3003A09D9
:1015BC00C4003B09C5003C09C600C30A0319C40A90
:1015CC000319C50A0319C60AF32A3C08C6003B08CE
:1015DC00C5003A08C4003908C3003C083B043A046F
:1015EC003904031DFA2AFB2A042B0030BC000030FE
:1015FC00BB000030BA000030B9008A2B9630FF00D7
:10160C007F08C200162B0130FF007F08C207013093
:10161C000310C60CC50CC40CC30CFF3E031D0E2BD3
:10162C00FE304605031D1B2B1C2B092B382B0130C0
:10163C00FF007F08C2070130C307003003180130D8
:10164C00C407003003180130C507003003180130FF
:10165C00C60701300310C60CC50CC40CC30CFF3EEE
:10166C00031D302BFF304605031D3D2B3E2B1D2B40
:10167C004A2B0130C2020130BD000310C30DC40D52
:10168C00C50DC60DBD0B432BC51B4D2B4E2B542B23
:10169C00023042020318532B542B3F2B4218572B6A
:1016AC00582B602BFF30C305FF30C4057F30C505B8
:1016BC00FF30C6050310C20C4208BD00BE01BF01BD
:1016CC00C00118300310BD0DBE0DBF0DC00DFF3E87
:1016DC00031D682B3D08C3043E08C4043F08C50421
:1016EC004008C604410803197C2B7D2B822BBC1FA0
:1016FC00802B812B822BC6174608BC004508BB00EB
:10170C004408BA004308B9000800831203134A08BE
:10171C008039FF007F08CF004A08CB004B07FF0041
:10172C007F08D500C91F9B2B9C2B9D2B551455084E
:10173C00CB00CC014B08DA004C08DB00FF3047052E
:10174C00E000FF304805E1007F304905E200003041
:10175C004A05E3005A085B040319B52BB62BBD2BC5
:10176C00E2175A0A5B04031DBC2BBD2BC52B0030A2
:10177C00E3000030E2000030E1000030E0005A08E5
:10178C005B04031DCA2BCB2BD42B0030CA000030BA
:10179C00C9000030C8000030C7006A2D4F0803197B
:1017AC00D82BD92BF62B0030DF004030DE00003078
:1017BC00DD000030DC008030DE04FF30DF0421303F
:1017CC0083160313E7000030E800831203135F084D
:1017DC00CA005E08C9005D08C8005C08C7006A2D15
:1017EC005A0A5B04031DFB2BFC2B0D2C7F30DF00F6
:1017FC008030DE000030DD000030DC005F08CA0005
:10180C005E08C9005D08C8005C08C7006A2D8130FD
:10181C00DA070318DB0AFF30DB075A080139FF002F
:10182C007F08D5000130FF005B0DDB0CDA0CFF0BE1
:10183C001A2C7F30DA070318DB0A0030DB070310A1
:10184C00600DD100610DD200620DD300630DD40088
:10185C000030E3000030E2000030E1000030E00036
:10186C000130D9000030D8000030D7000030D6004D
:10187C0055080319422C432C4C2C0130CB0003107F
:10188C00D10DD20DD30DD40DCB0B452CD001C42CC6
:10189C005608E0045708E1045808E2045908E30428
:1018AC0063085402031D642C62085302031D642C4C
:1018BC0061085202031D642C60085102031C672C42
:1018CC00682C8E2C6008D1026108031C610FD202B7
:1018DC006208031C620FD3026308031C630FD4025B
:1018EC005608E007570803110318013E03197F2C13
:1018FC00E107580803110318013E0319862CE2076F
:10190C00590803110318013E03198D2CE3079E2C73
:10191C005609CB005709CC005809CD005909CE0007
:10192C004B08E0054C08E1054D08E2054E08E305BF
:10193C005608CB005708CC005808CD005908CE00EB
:10194C0001300310CE0CCD0CCC0CCB0CFF3E031D88
:10195C00A72C4E08D9004D08D8004C08D7004B08CE
:10196C00D6000130CB000310D10DD20DD30DD40D08
:10197C00CB0BB92C0130FF007F08D0071930500277
:10198C00031CC92CCA2C4E2C6008CB006108CC005F
:10199C006208CD006308CE0001300310CE0CCD0CD4
:1019AC00CC0CCB0CFF3E031DD32C4E08E3004D0892
:1019BC00E2004C08E1004B08E00001306005D60065
:1019CC0000306105D70000306205D8000030630597
:1019DC00D9006008CB006108CC006208CD00630818
:1019EC00CE0001300310CE0CCD0CCC0CCB0CFF3E3A
:1019FC00031DF82C4E08E3004D08E2004C08E100F2
:101A0C004B08E0005608E007570803110318013E85
:101A1C000319112DE107580803110318013E03198E
:101A2C00182DE207590803110318013E03191F2D45
:101A3C00E307631C222D232D422D6008CB00610887
:101A4C00CC006208CD006308CE0001300310CE0C30
:101A5C00CD0CCC0CCB0CFF3E031D2C2D4E08E30003
:101A6C004D08E2004C08E1004B08E0000130DA07B9
:101A7C000318DB0A0030DB07FF306005DC00FF30A9
:101A8C006105DD007F306205DE0000306305DF009C
:101A9C005A08FF007F08D500551C552D562D572D83
:101AAC00DE175508CB0003104B0CFF007F08DF003E
:101ABC007F30FF007F08DF055F08CA005E08C900A1
:101ACC005D08C8005C08C7000800831203136B088C
:101ADC008039FF007F0883160313A90083120313B8
:101AEC006B0883160313A0002007FF007F08B000CB
:101AFC0083120313EA1F832D842D872D8316031362
:101B0C00301483160313300803198D2D8E2DA12D3F
:101B1C00300A031D922D932D9D2D0030831203133B
:101B2C00EB000030EA000030E9000030E8008312DE
:101B3C00EA17EB01AB2D003083120313EB000030DE
:101B4C00EA000030E9000030E80067088039FF0047
:101B5C007F0883160313A9068312031367088316E1
:101B6C000313A0002007FF007F08B10083120313AA
:101B7C00E61FC12DC22DC52D8316031331148316F8
:101B8C00031331080319CB2DCC2DDF2D310A031D86
:101B9C00D02DD12DDB2D003083120313E700003044
:101BAC00E6000030E5000030E4008312E617E701A0
:101BBC00E92D003083120313E7000030E6000030FB
:101BCC00E5000030E4006708660465046404031D46
:101BDC00F02DF12D0E2E0030EB000030EA0000301D
:101BEC00E9000030E8008030EA047F30EB04831613
:101BFC0003132908FF007F0883120313EB046B08FF
:101C0C00E7006A08E6006908E5006808E400FF2FB1
:101C1C00831603133008031D142E152E202E0030AE
:101C2C0083120313E7000030E6000030E5000030BB
:101C3C00E400FF2F3008A000A1012108A300310807
:101C4C002002A200031CA30322087F3EAA00230843
:101C5C000318013E003EAB00831203136B0883167E
:101C6C000313A800831203136A0883160313A70037
:101C7C0083120313690883160313A600831203133C
:101C8C00680883160313A500003083120313EB00BE
:101C9C000030EA000030E9000030E8000030831624
:101CAC000313AF000030AE000030AD000030AC00CC
:101CBC00B101DC2E31080319642E652E8D2E0130F6
:101CCC00A0000310A50DA60DA70DA80DA00B672E47
:101CDC000130A000031083120313E80DE90DEA0D87
:101CEC00EB0D83160313A00B702EAF1F7E2E7F2ED1
:101CFC00822E831203136814013083160313A00081
:101D0C000310AC0DAD0DAE0DAF0DA00B862E8312D6
:101D1C0003136708831603132802031DAB2E8312CB
:101D2C0003136608831603132702031DAB2E8312BD
:101D3C0003136508831603132602031DAB2E8312AF
:101D4C0003136408831603132502031CAE2EAF2E57
:101D5C00D82E2F1783120313640883160313A502BE
:101D6C00831203136508031C650FBD2EC02E83164A
:101D7C000313A602831203136608031C660FC72EF7
:101D8C00CA2E83160313A702831203136708031CBE
:101D9C00670FD12ED42E83160313A80283120313BC
:101DAC00831603130130FF007F08B1071A3031028C
:101DBC00031CE12EE22E602E28082704260425049D
:101DCC000319E92EEA2E132F2C14132F013083162E
:101DDC000313A000031083120313E80DE90DEA0DA1
:101DEC00EB0D83160313A00BF02EAF1FFE2EFF2E50
:101DFC00022F831203136814013083160313A000FF
:101E0C000310AC0DAD0DAE0DAF0DA00B062FFF30BA
:101E1C00AA070318AB0AFF30AB0783120313EA1FA0
:101E2C00182F192FEC2E83160313B101AF1F1F2F80
:101E3C00202F402FFF302C05A000FF302D05A100D6
:101E4C00FF302E05A2007F302F05A30023082204AB
:101E5C00210420040319332F342F392F8316031335
:101E6C00B101B10A402F83120313681C3E2F3F2F80
:101E7C00402F342F8316031331080319462F472F95
:101E8C00982F013083120313E80700300318013038
:101E9C00E907003003180130EA070030031801305D
:101EAC00EB076B1C5A2F5B2F982F680883160313B4
:101EBC00A00083120313690883160313A100831275
:101ECC0003136A0883160313A200831203136B080F
:101EDC0083160313A3000130A400230DA30CA20C42
:101EEC00A10CA00CA40B732F230883120313EB007B
:101EFC0083160313220883120313EA0083160313B9
:101F0C00210883120313E90083160313200883129C
:101F1C000313E800013083160313AA070318AB0A56
:101F2C000030AB07831603132B08803AFF00803078
:101F3C007F02031DA32FFF302A02031CA62FA72FFD
:101F4C00B72FFF3083160313AA000030AB0000300C
:101F5C0083120313EB000030EA000030E90000307C
:101F6C00E800831603132B08803AFF0080307F02B1
:101F7C00031DC22F01302A020318C52FC62FD72FDD
:101F8C0083160313AA01AB01003083120313EB0079
:101F9C000030EA000030E9000030E800831603133B
:101FAC00A901831603132A08FF007F08B000301C18
:101FBC00E02FE12FE52F83120313EA17EB2F7F306D
:101FCC00FF007F0883120313EA05831603133008FE
:101FDC00A0000310200CFF007F0883120313EB00FA
:101FEC00831603132908FF007F0883120313EB04E5
:041FFC00052E0800A6
:04400E00F220FF3E5F
:00000001FF
