:020000040000FA
:060000000A128A11122809
:10000800FE00030EFA000408FB000A08FC00831235
:1000180003137F08FD000A128A11332A0A128A1173
:10002800152883132030840056300A128A11DE22E4
:100038000A128A11A0308400F0300A128A11DE22D6
:100048000A128A1183010A128A11F92883120313EA
:10005800A21C2F2830284F2820301A06031D3528C7
:1000680036284928A21022150930FF007F08F3001E
:100078000A300A128A1142210A128A1183160313BE
:10008800981C472848284228A9280A128A11D122F0
:100098000A128A11A92843301A06031D5428552824
:1000A8005B28A21858285928A9282214A9284430BE
:1000B8001A06031D60286128672822186428652805
:1000C800A928A214A928221C6A286B28A9287C28F8
:1000D80023149E28A3149E2823159E28A3159E2822
:1000E80023169E28A3169E2823179E28A3179E280A
:1000F8001A08F800F9017908003A031984289E289B
:100108007808303A03196C28013A03196E28033A23
:1001180003197028013A03197228073A0319742839
:10012800013A03197628033A03197828013A031982
:100138007A289E2822100930FF007F08F30001303A
:100148000A128A1142210A128A1108008312031323
:10015800DC000E3059020318B228B328F828DD0154
:10016800CE28831203135D085C0784000A128A11E3
:1001780056220A128A11FF007F08D60024300A127C
:100188008A1187210A128A110130FF007F08831221
:100198000313DD075908FF3EDA00FF30031800306B
:1001A800DB005B08803A803C031DDC285A085D02AE
:1001B800031CDF28E028B5280D30FF007F088312D4
:1001C8000313D60024300A128A1187210A128A11D1
:1001D8000A30FF007F0883120313D60024300A1266
:1001E8008A1187210A128A1108000A128A11E62246
:1001F8000A128A11803083120313D6002530D700E3
:100208000A128A118D220A128A11831603130914FD
:100218000F3083120313E0000730DF009930DE004F
:10022800DE0B1429DF0B1429E00B14291B29831674
:10023800031309100F3083120313E0000730DF00A7
:100248009930DE00DE0B2629DF0B2629E00B262954
:100258002D290530FF007F0883120313D9001330BE
:100268000A128A11AA200A128A110A128A11732202
:100278000A128A1109290A128A111228F6000E3068
:1002880073020318482949298629F7016029770844
:10029800760784000A128A1156220A128A11FF0070
:1002A8007F08F00024300A128A11DF210A128A110D
:1002B8000130FF007F08F7077308FF3EF400FF30A6
:1002C80003180030F5007508803A803C031D6E293C
:1002D80074087702031C712972294B290D30FF001D
:1002E8007F08F00024300A128A11DF210A128A11CD
:1002F8000A30FF007F08F00024300A128A11DF213B
:100308000A128A11080083120313D8005608FF0046
:100318005808113E8400831300085807D70057086F
:1003280084007F0880005808113E84000008013EC0
:100338000F39FF005808113E84007F0880005808D4
:10034800123E8400103000020318AB29AC29B329EF
:100358000130FF005808123E84007F08800708001B
:1003680083120313D8005808123E84008313000830
:100378000319BF29C029DE295808103E8400000847
:100388005807D600560884000008FF007F08D700E9
:100398005808103E84000008013E0F39FF00580835
:1003A800103E84007F0880005808123E8400013007
:1003B800800257080800F2007008FF007208113E1A
:1003C8008400831300087207F100710884007F0815
:1003D80080007208113E84000008013E0F39FF00BA
:1003E8007208113E84007F0880007208123E840063
:1003F800103000020318012A022A092A0130FF00DE
:100408007208123E84007F0880070800F200720814
:10041800123E8400831300080319132A142A322A6F
:100428007208103E840000087207F000700884000B
:100438000008FF007F08F1007208103E84000008E1
:10044800013E0F39FF007208103E84007F088000CB
:100458007208123E840001308002710808000C1EE8
:10046800362A372A3F2A0A128A11C1220A128A1109
:10047800831203130C128C1E422A432A4B2A0A1297
:100488008A112A200A128A11831203138C127D08FA
:10049800FF007C088A007B0884007A0E8300FE0E29
:1004A8007E0E090002308A000408840A820700349C
:1004B800433452346534633465346934763465348E
:1004C80000344434523465346334653469347634E2
:1004D80065340034313432343334343400348316E0
:1004E80003130C1683120313360803197C2A7D2A7A
:1004F8008C2A24300A128A11B4210A128A11831212
:100508000313990083160313981C8B2A8C2A862AB6
:100518000800831603130C128C1618131812831272
:1005280003131813831603178711831603139811DF
:100538001815473099008717071398168312031365
:10054800181698170800831603130C168312031342
:1005580036080319B02AB12AC02A24300A128A118F
:100568000A220A128A1183120313990083160313AD
:10057800981CBF2AC02ABA2A080083120313360817
:100588000319C72AC82ACD2A0A128A11A7220A12D1
:100598008A11831603130C120800831203131A0816
:1005A800FF007F08F00037300A128A11DF210A1293
:1005B8008A11080064008001840A040603190034C3
:1005C8000406DF2A0A128A11EC220A128A1108008C
:0605D8000B178B17080051
:04400E00F220FF3E5F
:00000001FF
