:020000040000FA
:060000000A128A11162805
:10000800FE00030E83160313E3000408E4000A0845
:10001800E500831203137F0883160313E6000A1210
:100028008A15CE290A128A11192883160313E701A3
:10003800E801831790308400C2300A128A153720ED
:100048000A128A111030840060300A128A1537208B
:100058000A128A1183010A128A15FC2883160313CF
:10006800E20062080B3E840083170003031D3D284D
:100078003E28592862080B3E840080016208033E2E
:10008800840001308002840A0030031C01308002A1
:10009800840A0030031C01308002840A0030031CEB
:1000A80001308002033084023C2E6208033E840043
:1000B8000008B700840A0008B800840A0008B900DC
:1000C800840A0008BA003A083904380437040319C6
:1000D8006E286F2886286208033E8400013080025B
:1000E800840A0030031C01308002840A0030031C9B
:1000F80001308002840A0030031C01308002033082
:1001080084023C2E1A30FF007F08F60036084E3E67
:10011800840000080A128A157A200A128A118316A6
:1001280003133607B7003708093E84008317000811
:10013800B800840A0008B900840A0008BA00840AD2
:100148000008BB001A30FF007F08F60036084E3E54
:10015800840000080A128A157A200A128A11831666
:1001680003133607BC003C08053E840083170008CB
:10017800BD00840A0008BE00840A0008BF00840A83
:100188000008C0001A30FF007F08F60036084E3E0F
:10019800840000080A128A157A200A128A11831626
:1001A80003133607C100410A840083170008C20000
:1001B800840A0008C300840A0008C400840A0008EE
:1001C800C5004208BD0743080318430FEC28ED2873
:1001D800BE0744080318440FF228F328BF07450850
:1001E8000318450AC0073D08B8073E0803183E0F24
:1001F800FE28FF28B9073F0803183F0F04290529DF
:10020800BA0740080318400ABB073B083A043904F8
:100218003804031D102911298B2A1A30FF007F0882
:10022800F60036084E3E84000008013EF200003019
:1002380003180130F3000330F0000030F1000A1217
:100248008A159F220A128A1170080A128A157A20C2
:100258000A128A11831603133607B7003708193EA6
:100268008400023083170006031D3B293C29882A95
:100278000330F0000030F10036084E3E84000008DC
:10028800013EF200003003180130F3000A128A150B
:100298009F220A128A117008FF008316031336087A
:1002A8004E3E84007F08831780001A30FF007F08C5
:1002B800F60036084E3E840000080A128A157A2095
:1002C8000A128A11831603133607B7003708193E36
:1002D80084000330FF007F088317800062088400D1
:1002E8000008031D782979298B2A463083120313C5
:1002F800EB001C30EA004030E9000030E8001A301A
:10030800FF007F08F6008316031336084E3E84006C
:1003180000080A128A157A200A128A118316031312
:100328003607B70037080D3E840083170008B80069
:10033800840A0008B900840A0008BA00840A000880
:10034800BB0001300310B80DB90DBA0DBB0DFF3E4F
:10035800031DA6291A30FF007F08F60036084E3E16
:10036800840000080A128A157A200A128A11831654
:1003780003133607BC003C08153E840083170008A9
:1003880083120313B100840A0008B200840A00082B
:10039800B300840A0008B4001A30FF007F08F60092
:1003A8008316031336084E3E840000080A128A1585
:1003B8007A200A128A11831603133607BD003D08F6
:1003C800153E84008317000883120313AD00840AC6
:1003D8000008AE00840A0008AF00840A0008B000D4
:1003E8000A128A1505220A128A11831203132D088C
:1003F80083160313B807831203132E0803182E0F4E
:10040800062A092A83160313B907831203132F0830
:1004180003182F0F102A132A83160313BA078312FF
:10042800031330080318300A83160313BB073B086D
:1004380083120313BC00831603133A0883120313B1
:10044800BB0083160313390883120313BA008316FB
:100458000313380883120313B90000300A128A11F3
:100468003D260A128A11831203133C08CA003B086E
:10047800C9003A08C8003908C7000A128A158B2330
:100488000A128A11831203134A08E7004908E60092
:100498004808E5004708E4000A128A156B250A1285
:1004A8008A1183120313670883160313B500831296
:1004B8000313660883160313B40083120313650835
:1004C80083160313B30083120313640883160313FC
:1004D800B2000A128A15F8220A128A118316031327
:1004E8006208073E8400320883178000840A3308B4
:1004F8008000840A34088000840A35088000620875
:1005080084008001800A8B2A6208840080011A30E6
:10051800FF007F08F60036084E3E840000080A12E5
:100528008A157A200A128A11831603133607B70030
:100538003708193E8400033083170006031DA52AD7
:10054800A62A3C2E62080B3E84008001800AFF30F8
:1005580083120313A300FF30A200E130A100003092
:10056800A0001A30FF007F08F60083160313360830
:100578004E3E840000080A128A157A200A128A114F
:10058800831603133607B70037080D3E8400831718
:10059800000883120313A400840A0008A500840A33
:1005A8000008A600840A0008A7000A128A119627E4
:1005B8000A128A11831203132308B0002208AF001D
:1005C8002108AE002008AD00FF30A300FF30A200D4
:1005D800E130A1000030A0001A30FF007F08F600CB
:1005E8008316031336084E3E8400831700080A1248
:1005F8008A157A200A128A11831603133607B8005F
:1006080038080D3E84008317000883120313A400E2
:10061800840A0008A500840A0008A600840A0008C5
:10062800A7000A128A1196270A128A118312031345
:100638002308B4002208B3002108B2002008B10042
:100648000A128A1505220A128A1183120313300826
:1006580083160313C900831203132F088316031389
:10066800C800831203132E0883160313C7008312CE
:1006780003132D0883160313C600490883120313B6
:10068800B00083160313480883120313AF008316C0
:100698000313470883120313AE0083160313460897
:1006A80083120313AD00831603136208073E840008
:1006B8008317000883120313B100840A0008B200EC
:1006C800840A0008B300840A0008B4000A128A15D4
:1006D80005220A128A1183120313300883160313A2
:1006E800CD00831203132F0883160313CC00831243
:1006F80003132E0883160313CB00831203132D084C
:1007080083160313CA004D0883120313B00083161F
:1007180003134C0883120313AF00831603134B080B
:1007280083120313AE00831603134A0883120313BC
:10073800AD00831603136208073E84008317000880
:1007480083120313B100840A0008B200840A000867
:10075800B300840A0008B4000A128A1505220A1296
:100768008A1183120313300883160313D1008312EE
:1007780003132F0883160313D000831203132E08C4
:1007880083160313CF00831203132D088316031354
:10079800CE00510883120313B000831603135008C8
:1007A80083120313AF00831603134F088312031336
:1007B800AE00831603134E0883120313AD0083168D
:1007C80003136208073E840083170008831203138B
:1007D800B100840A0008B200840A0008B300840A41
:1007E8000008B4000A128A1505220A128A11831217
:1007F8000313300883160313D500831203132F083D
:1008080083160313D400831203132E0883160313CD
:10081800D300831203132D0883160313D20055083F
:1008280083120313B00083160313540883120313AF
:10083800AF0083160313530883120313AE00831605
:100848000313520883120313AD00831603136208BF
:10085800073E84008317000883120313B100840A3B
:100868000008B200840A0008B300840A0008B40033
:100878000A128A1505220A128A11831203133008F4
:1008880083160313D900831203132F088316031347
:10089800D800831203132E0883160313D70083127C
:1008A80003132D0883160313D6006208073E84003D
:1008B8008317000883120313AD00840A0008AE00F2
:1008C800840A0008AF00840A0008B00083160313E6
:1008D8006208073E8400000883120313B100840AEB
:1008E8000008B200840A0008B300840A0008B400B3
:1008F8000A128A1505220A128A1183120313300874
:1009080083160313DD00831203132F0883160313C2
:10091800DC00831203132E0883160313DB008312F3
:1009280003132D0883160313DA005D0883120313DB
:10093800B000831603135C0883120313AF008316F9
:1009480003135B0883120313AE00831603135A08BC
:1009580083120313AD00831603136208073E840055
:100968008317000883120313B100840A0008B20039
:10097800840A0008B300840A0008B4000A128A1521
:1009880005220A128A1183120313300883160313EF
:10099800E100831203132F0883160313E000831268
:1009A80003132E0883160313DF00831203132D0885
:1009B80083160313DE006208073E840083170008CD
:1009C800B700840A0008B800840A0008B900840A3D
:1009D8000008BA00590883120313B00083160313E2
:1009E800580883120313AF008316031357088312A2
:1009F8000313AE0083160313560883120313AD00C6
:100A0800831603136208073E840000088312031349
:100A1800B100840A0008B200840A0008B300840AFE
:100A28000008B4000A128A1505220A128A118312D4
:100A380003132D0883160313BB00831203132E0818
:100A480083160313BC00831203132F0883160313A2
:100A5800BD0083120313300883160313BE00FF3052
:100A680083120313A300FF30A200E130A10000307D
:100A7800A00083160313610883120313B0008316C2
:100A88000313600883120313AF00831603135F0870
:100A980083120313AE00831603135E088312031335
:100AA800AD001A30FF007F08F600831603133608DE
:100AB8004E3E8400831700080A128A157A200A120B
:100AC8008A11831603133607BF003F080D3E8400C2
:100AD8008317000883120313B100840A0008B200C8
:100AE800840A0008B300840A0008B4000A128A15B0
:100AF80005220A128A11831203133008A7002F084F
:100B0800A6002E08A5002D08A4000A128A1196270F
:100B18000A128A1183120313200883160313BB07D2
:100B28008312031321080318210F9B2D9E2D831672
:100B38000313BC078312031322080318220FA52DE1
:100B4800A82D83160313BD07831203132308031864
:100B5800230A83160313BE073B08B7073C0803188C
:100B68003C0FB72DB82DB8073D0803183D0FBD2D14
:100B7800BE2DB9073E0803183E0ABA076208073EA9
:100B88008400370883178000840A38088000840AA4
:100B980039088000840A3A0880001A30FF007F086C
:100BA800F60036084E3E840000080A128A157A209C
:100BB8000A128A11831603133607B700370A84000E
:100BC800013083178002840A0030031C0130800240
:100BD800840A0030031C01308002840A0030031CA0
:100BE80001308002033084021A30FF007F08F600CB
:100BF80036084E3E840000080A128A157A200A1226
:100C08008A11831603133607B7003708053E840098
:100C1800013083178002840A0030031C01308002EF
:100C2800840A0030031C01308002840A0030031C4F
:100C380001308002033084026208073E8400000805
:100C4800B700840A0008B800840A0008B900840ABA
:100C58000008BA006208033E840037088000840A4E
:100C680038088000840A39088000840A3A0880001D
:100C7800080083120313C10041080319442E452EAE
:100C8800592EBC1F482E492E592E3909C3003A093E
:100C9800C4003B09C5003C09C600C30A0319C40ABD
:100CA8000319C50A0319C60A612E3C08C6003B0889
:100CB800C5003A08C4003908C3003C083B043A049C
:100CC8003904031D682E692E722E0030BC000030D6
:100CD800BB000030BA000030B900F82E9630FF0093
:100CE8007F08C200842E0130FF007F08C207013050
:100CF8000310C60CC50CC40CC30CFF3E031D7C2E90
:100D0800FE304605031D892E8A2E772EA62E013029
:100D1800FF007F08C2070130C30700300318013005
:100D2800C407003003180130C5070030031801302C
:100D3800C60701300310C60CC50CC40CC30CFF3E1B
:100D4800031D9E2EFF304605031DAB2EAC2E8B2EA9
:100D5800B82E0130C2020130BD000310C30DC40D0E
:100D6800C50DC60DBD0BB12EC51BBB2EBC2EC22E8C
:100D7800023042020318C12EC22EAD2E4218C52ED3
:100D8800C62ECE2EFF30C305FF30C4057F30C50503
:100D9800FF30C6050310C20C4208BD00BE01BF01EA
:100DA800C00118300310BD0DBE0DBF0DC00DFF3EB4
:100DB800031DD62E3D08C3043E08C4043F08C504DD
:100DC8004008C60441080319EA2EEB2EF02EBC1F7A
:100DD800EE2EEF2EF02EC6174608BC004508BB00C5
:100DE8004408BA004308B900080083160317CC0169
:100DF800C51FFF2E002F0D2FC209C309C409C5093D
:100E0800C20A0319C30A0319C40A0319C50ACC0183
:100E1800CC0AC91F102F112F202FC609C709C809CE
:100E2800C909C60A0319C70A0319C80A0319C90A4E
:100E38000130FF007F08CC060030D0000030CF0022
:100E48000030CE000030CD0045084404430442047D
:100E580003192F2F302F7D2FCB01CB0A402F0130C4
:100E6800CA000310C20DC30DC40DC50DCA0B352F22
:100E78000130FF007F08CB07C51F432F442F332FB6
:100E88000130CA000310CD0DCE0DCF0DD00DCA0B09
:100E9800462F45084902031D5B2F44084802031DDD
:100EA8005B2F43084702031D5B2F42084602031CC1
:100EB8005E2F5F2F6E2F4208C6024308031C430FA4
:100EC800C7024408031C440FC8024508031C450F09
:100ED800C9024D1401300310C50CC40CC30CC20C5C
:100EE800FF3E031D6F2F0130CB02031D7C2F7D2F8A
:100EF800442F4C080319812F822F8D2FCD09CE093D
:100F0800CF09D009CD0A0319CE0A0319CF0A03194C
:100F1800D00A5008C5004F08C4004E08C3004D0849
:100F2800C2000800003083120313AB000030AA008F
:100F38000030A9000030A80023082204210420045E
:100F48000319A72FA82FF52FAC01AC0AB82F013031
:100F5800F9000310A00DA10DA20DA30DF90BAD2FE3
:100F68000130FF007F08AC07A31FBB2FBC2FAB2F9E
:100F78000130F9000310A80DA90DAA0DAB0DF90B4E
:100F8800BE2F23082702031DD32F22082602031D84
:100F9800D32F21082502031DD32F20082402031C68
:100FA800D62FD72FE62F2008A4022108031C210FD3
:100FB800A5022208031C220FA6022308031C230FE4
:100FC800A702281401300310A30CA20CA10CA00C3A
:100FD800FF3E031DE72F0130AC02031DF42FF52F50
:100FE800BC2F2B08A3002A08A2002908A100280862
:040FF800A00008004D
:10105A000B178B170800A3300A128A154B200A12A5
:10106A008A15080064008001840A04060319003402
:10107A000406382801300A128A1559200A128A15DC
:10108A000A128A152D200A128A150800F300831203
:10109A0003131A08FF007F08F00073080A128A1562
:1010AA004B210A128A15080083160317C2008312FD
:1010BA0003138C1083160317420C83160313031CA5
:1010CA008C1003188C1408008316031722080319BE
:1010DA006F287028762890300A128A15A8200A12DA
:1010EA008A15831603130C120800F800F701781CFE
:1010FA007F28802884287608FF007F08F7070310D6
:10110A00F60D0310F80C7808031D8C288D287C280E
:10111A0077080800831603173708031D95289628B1
:10112A00A2281030FF007F0883160313B600B630DA
:10113A000A128A1132200A128A150A128A15C32043
:10114A000A128A150800F300831603130C16831675
:10115A00031722080319B228B328C22873080A12EF
:10116A008A1522210A128A158312031399008316FB
:10117A000313981CC128C228BC2808008316031729
:10118A003608031DC928CA28CE2883160313091056
:10119A00DE28380C83160313031C881303188817D8
:1011AA0083160317410C83160313031C0910031833
:1011BA000914080083160317C500831603130C16B7
:1011CA008316031722080319EB28EC28FB28450885
:1011DA000A128A1576210A128A15831203139900B4
:1011EA0083160313981CFA28FB28F52808000A120C
:1011FA008A153F200A128A15803083160317D100F8
:10120A002530D2000A128A154D220A128A15613037
:10121A00FF007F0883160317C20090300A128A154E
:10122A00A1210A128A1590300A128A15DF200A12A1
:10123A008A150C290A128A111628F2007208123E1F
:10124A0084008317000803192B292C294A297208BC
:10125A00103E840000087207F0007008840000083D
:10126A00FF007F08F1007208103E84000008013E6A
:10127A000F39FF007208103E84007F088000720850
:10128A00123E84000130800271080800F2007008E2
:10129A00FF007208113E8400831700087207F100EC
:1012AA00710884007F0880007208113E84000008DB
:1012BA00013E0F39FF007208113E84007F0880004A
:1012CA007208123E84001030000203186D296E293C
:1012DA0075290130FF007208123E84007F088007DA
:1012EA00080083160317C4004408123E84008317BB
:1012FA000008031981298229A0294408103E840084
:10130A0000084407C200420884000008FF007F0862
:10131A00C3004408103E84000008013E0F39FF0054
:10132A004408103E84007F0880004408123E84006E
:10133A00013080024308080083160317C4004208DC
:10134A00FF004408113E8400831700084407C300C5
:10135A00430884007F0880004408113E8400000886
:10136A00013E0F39FF004408113E84007F088000C7
:10137A004408123E8400103000020318C529C62909
:10138A00CD290130FF004408123E84007F088007FF
:10139A000800831203138C1CD329D429DC290A12CE
:1013AA008A158F200A128A15831203138C108C1E39
:1013BA00DF29E029E8290A128A1530200A128A153B
:1013CA00831203138C120C1EEB29EC29F4290A123E
:1013DA008A1569200A128A15831203130C128316BE
:1013EA000313660883120313FF00831603136508A9
:1013FA008A0064088400630E8300FE0E7E0E0900D4
:10140A00003083120313B8000030B7000030B60072
:10141A000030B5002D1C122A132A2A2A3108B507D2
:10142A00320803110318013E03191C2AB6073308B0
:10143A0003110318013E0319232AB70734080311BD
:10144A000318013E03192A2AB8070130FA000310CB
:10145A00B10DB20DB30DB40DFA0B2C2A01300310E5
:10146A00B00CAF0CAE0CAD0CFF3E031D342A300895
:10147A002F042E042D04031D432A442A0F2A380858
:10148A00B0003708AF003608AE003508AD000800D6
:10149A00831603130C128C161813181283120313D3
:1014AA001813831603178711831603139811181537
:1014BA00831603175108C2005208C300C401C501AC
:1014CA000030C900A830C800C030C7000030C600CC
:1014DA000A128A11F9260A128A1583160317450871
:1014EA00D6004408D5004308D4004208D30000308F
:1014FA00C5000030C4000030C3001030C2005608D6
:10150A00C9005508C8005408C7005308C6000A1283
:10151A008A11F9260A128A15831603174208FF3E12
:10152A008316031399008717071398168312031358
:10153A0018160800F501F31FA32AA42AAB2AF209F8
:10154A00F309F20A0319F30AF501F50AF11FAE2AA3
:10155A00AF2AB42AF009F109F00A0319F10A70084E
:10156A0071040319B92ABA2AE92AF401F40AC82A21
:10157A0001300310F00DF10DFF3E031DBE2A0130AC
:10158A00FF007F08F407F11FCB2ACC2ABD2A710875
:10159A007302031DD22A70087202031CD52AD62AA6
:1015AA00DC2A7008F2027108031CF303F30201300B
:1015BA000310F10CF00CFF3E031DDD2A0130F4028A
:1015CA00031DE82AE92ACC2A75080319ED2AEE2A0E
:1015DA00F32AF209F309F20A0319F30A7308F1006C
:1015EA007208F0000800031083160313340D350D3A
:1015FA00FF007F08FC007C08031D042B052B0E2B23
:10160A000030B5000030B4000030B3000030B20042
:10161A008A2B320883120313EC0083160313330850
:10162A0083120313ED008316031334088312031382
:10163A00EE0083160313350883120313EF001F30DD
:10164A000310EF0CEE0CED0CEC0CFF3E031D252BEA
:10165A006C08FF007F08FB0083160313B417FF30E2
:10166A00B205FF30B305FF30B4050030B50596303A
:10167A00FC02FC1F412B422B5C2B7C08803A973ED4
:10168A000318482B492B4A2B052B01300310B50CA4
:10169A00B40CB30CB20CFF3E031D4B2B0130FF0000
:1016AA007F08FC07031D5A2B5B2B4A2B782B203013
:1016BA007C02031C612B622B732B052B01308312D6
:1016CA00EC00031083160313B20DB30DB40DB50D60
:1016DA0083120313EC0B662B0130FC027C08031DFA
:1016EA00772B782B632B7B0803197C2B7D2B8A2B7A
:1016FA0083160313B209B309B409B509B20A031967
:10170A00B30A0319B40A0319B50A080083120313AA
:10171A004A088039FF007F08CF004A08CB004B07F0
:10172A00FF007F08D500C91F9B2B9C2B9D2B5514AE
:10173A005508CB00CC014B08DA004C08DB00FF301F
:10174A004705E000FF304805E1007F304905E20027
:10175A0000304A05E3005A085B040319B52BB62B7F
:10176A00BD2BE2175A0A5B04031DBC2BBD2BC52BEC
:10177A000030E3000030E2000030E1000030E00019
:10178A005A085B04031DCA2BCB2BD42B0030CA008A
:10179A000030C9000030C8000030C7006A2D4F0869
:1017AA000319D82BD92BF62B0030DF004030DE008E
:1017BA000030DD000030DC008030DE04FF30DF0462
:1017CA00213083160313E7000030E8008312031365
:1017DA005F08CA005E08C9005D08C8005C08C70047
:1017EA006A2D5A0A5B04031DFB2BFC2B0D2C7F3040
:1017FA00DF008030DE000030DD000030DC005F08F2
:10180A00CA005E08C9005D08C8005C08C7006A2DE6
:10181A008130DA070318DB0AFF30DB075A0801397F
:10182A00FF007F08D5000130FF005B0DDB0CDA0CEE
:10183A00FF0B1A2C7F30DA070318DB0A0030DB07AC
:10184A000310600DD100610DD200620DD300630D4B
:10185A00D4000030E3000030E2000030E100003044
:10186A00E0000130D9000030D8000030D700003045
:10187A00D60055080319422C432C4C2C0130CB00BE
:10188A000310D10DD20DD30DD40DCB0B452CD001A5
:10189A00C42C5608E0045708E1045808E204590821
:1018AA00E30463085402031D642C62085302031DF7
:1018BA00642C61085202031D642C60085102031C47
:1018CA00672C682C8E2C6008D1026108031C610FFA
:1018DA00D2026208031C620FD3026308031C630F5F
:1018EA00D4025608E007570803110318013E0319EA
:1018FA007F2CE107580803110318013E0319862CAF
:10190A00E207590803110318013E03198D2CE30756
:10191A009E2C5609CB005709CC005809CD0059090D
:10192A00CE004B08E0054C08E1054D08E2054E08DB
:10193A00E3055608CB005708CC005808CD005908D3
:10194A00CE0001300310CE0CCD0CCC0CCB0CFF3EDC
:10195A00031DA72C4E08D9004D08D8004C08D70003
:10196A004B08D6000130CB000310D10DD20DD30D98
:10197A00D40DCB0BB92C0130FF007F08D0071930EA
:10198A005002031CC92CCA2C4E2C6008CB006108DB
:10199A00CC006208CD006308CE0001300310CE0CE3
:1019AA00CD0CCC0CCB0CFF3E031DD32C4E08E30010
:1019BA004D08E2004C08E1004B08E00001306005E8
:1019CA00D60000306105D70000306205D80000302B
:1019DA006305D9006008CB006108CC006208CD001D
:1019EA006308CE0001300310CE0CCD0CCC0CCB0C0E
:1019FA00FF3E031DF82C4E08E3004D08E2004C0898
:101A0A00E1004B08E0005608E007570803110318E5
:101A1A00013E0319112DE107580803110318013E6D
:101A2A000319182DE207590803110318013E031977
:101A3A001F2DE307631C222D232D422D6008CB00A6
:101A4A006108CC006208CD006308CE0001300310A3
:101A5A00CE0CCD0CCC0CCB0CFF3E031D2C2D4E080E
:101A6A00E3004D08E2004C08E1004B08E0000130B9
:101A7A00DA070318DB0A0030DB07FF306005DC00F9
:101A8A00FF306105DD007F306205DE00003063054E
:101A9A00DF005A08FF007F08D500551C552D562D2A
:101AAA00572DDE175508CB0003104B0CFF007F089B
:101ABA00DF007F30FF007F08DF055F08CA005E088D
:101ACA00C9005D08C8005C08C70008008312031338
:101ADA006B088039FF007F0883160313A90083125D
:101AEA0003136B0883160313A0002007FF007F0867
:101AFA00B00083120313EA1F832D842D872D8316CA
:101B0A000313301483160313300803198D2D8E2DF9
:101B1A00A12D300A031D922D932D9D2D0030831285
:101B2A000313EB000030EA000030E9000030E8005F
:101B3A008312EA17EB01AB2D003083120313EB007B
:101B4A000030EA000030E9000030E8006708803918
:101B5A00FF007F0883160313A9068312031367087D
:101B6A0083160313A0002007FF007F08B100831229
:101B7A000313E61FC12DC22DC52D8316031331147D
:101B8A008316031331080319CB2DCC2DDF2D310A0F
:101B9A00031DD02DD12DDB2D003083120313E70056
:101BAA000030E6000030E5000030E4008312E6175A
:101BBA00E701E92D003083120313E7000030E60045
:101BCA000030E5000030E400670866046504640438
:101BDA00031DF02DF12D0E2E0030EB000030EA002F
:101BEA000030E9000030E8008030EA047F30EB047E
:101BFA00831603132908FF007F0883120313EB04DB
:101C0A006B08E7006A08E6006908E5006808E4006E
:101C1A00FF2F831603133008031D142E152E202EB2
:101C2A00003083120313E7000030E6000030E500BD
:101C3A000030E400FF2F3008A000A1012108A30012
:101C4A0031082002A200031CA30322087F3EAA0037
:101C5A0023080318013E003EAB00831203136B08EE
:101C6A0083160313A800831203136A088316031347
:101C7A00A70083120313690883160313A6008312AD
:101C8A000313680883160313A50000308312031395
:101C9A00EB000030EA000030E9000030E8000030D4
:101CAA0083160313AF000030AE000030AD000030E1
:101CBA00AC00B101DC2E31080319642E652E8D2E7D
:101CCA000130A0000310A50DA60DA70DA80DA00BAD
:101CDA00672E0130A000031083120313E80DE90DEB
:101CEA00EA0DEB0D83160313A00B702EAF1F7E2E89
:101CFA007F2E822E83120313681401308316031376
:101D0A00A0000310AC0DAD0DAE0DAF0DA00B862ECD
:101D1A00831203136708831603132802031DAB2ECD
:101D2A00831203136608831603132702031DAB2EBF
:101D3A00831203136508831603132602031DAB2EB1
:101D4A00831203136408831603132502031CAE2EA1
:101D5A00AF2ED82E2F17831203136408831603138A
:101D6A00A502831203136508031C650FBD2EC02E3E
:101D7A0083160313A602831203136608031C660F55
:101D8A00C72ECA2E83160313A702831203136708EA
:101D9A00031C670FD12ED42E83160313A8028312B5
:101DAA000313831603130130FF007F08B1071A30AB
:101DBA003102031CE12EE22E602E28082704260495
:101DCA0025040319E92EEA2E132F2C14132F0130A0
:101DDA0083160313A000031083120313E80DE90D01
:101DEA00EA0DEB0D83160313A00BF02EAF1FFE2E88
:101DFA00FF2E022F83120313681401308316031374
:101E0A00A0000310AC0DAD0DAE0DAF0DA00B062F4B
:101E1A00FF30AA070318AB0AFF30AB07831203137C
:101E2A00EA1F182F192FEC2E83160313B101AF1FC7
:101E3A001F2F202F402FFF302C05A000FF302D052B
:101E4A00A100FF302E05A2007F302F05A300230832
:101E5A002204210420040319332F342F392F831627
:101E6A000313B101B10A402F83120313681C3E2FDA
:101E7A003F2F402F342F8316031331080319462F9F
:101E8A00472F982F013083120313E80700300318F5
:101E9A000130E907003003180130EA07003003185F
:101EAA000130EB076B1C5A2F5B2F982F680883169B
:101EBA000313A00083120313690883160313A100F6
:101ECA00831203136A0883160313A20083120313EF
:101EDA006B0883160313A3000130A400230DA30C7F
:101EEA00A20CA10CA00CA40B732F230883120313BA
:101EFA00EB0083160313220883120313EA008316E6
:101F0A000313210883120313E9008316031320081D
:101F1A0083120313E800013083160313AA07031878
:101F2A00AB0A0030AB07831603132B08803AFF0075
:101F3A0080307F02031DA32FFF302A02031CA62F25
:101F4A00A72FB72FFF3083160313AA000030AB0068
:101F5A00003083120313EB000030EA000030E9007E
:101F6A000030E800831603132B08803AFF00803004
:101F7A007F02031DC22F01302A020318C52FC62F64
:101F8A00D72F83160313AA01AB0100308312031360
:101F9A00EB000030EA000030E9000030E800831668
:101FAA000313A901831603132A08FF007F08B00050
:101FBA00301CE02FE12FE52F83120313EA17EB2FD2
:101FCA007F30FF007F0883120313EA058316031389
:101FDA003008A0000310200CFF007F0883120313AF
:101FEA00EB00831603132908FF007F0883120313EB
:061FFA00EB04052E0800B7
:04400E00F220FF3E5F
:00000001FF
