:020000040000FA
:060000000A128A1110280B
:10000800FE00030EF0000A08F100831203137F08B4
:10001800F2000A128A1148280A128A111328F701D5
:10002800F801F901FA0183010A128A111B280A1240
:100038008A11BD200A128A11F30107300A128A11A7
:10004800CF200A128A110330FF007F08F300003026
:10005800F400F50001300A128A1192200A128A115E
:1000680083160313071188130813881207308312A5
:10007800031395001708F0390C38970004309200E4
:1000880044280A128A1110280B1D4B284C28522884
:100098000A128A1175200A128A110B11831203138E
:1000A8000C1C5728582860280A128A11AA200A12FC
:1000B8008A11831203130C108C1C632864286C2883
:1000C8000A128A11F5200A128A11831203138C105E
:1000D8007208FF0071088A00700E8300FE0E7E0E03
:1000E80009007808803AFF0080307F02031D7E28CF
:1000F80002307702031C812882288828F701F8013A
:100108008316031309149128831603130910013069
:10011800F7070318F80A0030F807080083120313DA
:10012800A0001010901090117308F600F60E100839
:100138007606CF3976069000200C031C10100318A1
:10014800101475088F0074088E00080002307A02B7
:10015800031CAF28B028B528FA0183160313091128
:10016800BC288316031309150130FF007F08FA071E
:10017800080001300A128A11EA200A128A11013095
:100188000A128A11DE200A128A110A128A11F22032
:100198000A128A110800F4008316031381118112D0
:1001A80001087406F8397406810073088312031372
:1001B80081000800F300831203130C10730C8316DC
:1001C8000313031C0C1003180C140800F3000B1184
:1001D800730C031C8B1203188B1608000B178B1754
:0401E8000800080003
:04400E00F220FF3E5F
:00000001FF
